:100000000C9420010C9458010C9458010C94580144
:100010000C9458010C9458010C9458010C945801FC
:100020000C9458010C9458010C94B21B0C94861C2F
:100030000C94BF160C9458010C9458010C94580160
:100040000C9458010C9458010C9458010C945801CC
:100050000C9458010C9446170C9458010C945801B8
:100060000C9458010C9458010C9458010C945801AC
:100070000C9458010C9458010C9458010C9458019C
:100080000C9458010C9458010C9458010C9458018C
:100090000C9458010C9458010C9458010C9458017C
:1000A0000C9458010C9458010C945801AC00AE000B
:1000B000AB00A8001C036D0069006E0069005F00C2
:1000C0006D006500640069006100700061006400FB
:1000D000000020036400610072006B00650078007E
:1000E00074007200610074006F006100730074009E
:1000F000790000000403090409023B00020100A08A
:10010000FA090400000103010100092111010001A5
:1001100022440007058103080001090401000103CE
:1001200000000009211101000122B6000705820329
:100130002000011201000200000008EDFE00000096
:10014000010102000105010902A10185020901A1C5
:100150000005091901290815002501950875018177
:10016000020501093009311581257F950275088145
:100170000609381581257F950175088106050C0A49
:1001800038021581257F950175088106C0C00501DB
:100190000980A101850319012AB700150126B700BE
:1001A000950175108100C0050C0901A10185041994
:1001B000012AA002150126A002950175108100C038
:1001C00005010906A1018506050719E029E71500C3
:1001D00025019508750181020507190029EF150011
:1001E000250195F07501810205081901290595057C
:1001F00075019102950175039101C005010906A1E0
:1002000001050719E029E715002501950875018109
:10021000029501750881010507190029FF150026BF
:10022000FF009506750881000508190129051500CC
:100230002501950575019102950175039101C00095
:1002400011241FBECFEFDAE0DEBFCDBF04B603FE40
:1002500018C08091970290919802A0919902B09154
:100260009A028730904BA740B04B59F410929702F6
:10027000109298021092990210929A02E0E0F8E32C
:10028000099511E0A0E0B1E0E6E7FEE302C00590C9
:100290000D92AA39B107D9F722E0AAE9B1E001C06D
:1002A0001D92A739B207E1F70E942F100C94FA1E95
:1002B0000C94000089EA611101C08AEA0E946A0375
:1002C00080E00895862B59F4443048F4E42FF0E0A0
:1002D000EE0FFF1FE455FF4F85919491089581E043
:1002E00090E008950E946201089581E008950E94BF
:1002F0007501089581E008950E94750108950E9496
:100300007C01089508950E9482010895A6E0B0E05E
:10031000ECE8F1E00C94561E49835A839E83309199
:10032000A10189819A8131111AC03E81332399F04C
:10033000222389F00E940D07182F682F89819A8146
:100340000E94F20669817A81812F0E94EC0D269627
:10035000E3E00C94721E0E94FF06182FF3CF0E9458
:100360000D0769817A81F1CFFC01262F40815181EF
:1003700062817381848195810E9486010895CF9363
:10038000DF93EC0161E00E94B401BE010E9477019D
:10039000DF91CF910895CF93DF93EC0160E00E944D
:1003A000B401BE010E948301DF91CF9108950895A9
:1003B0000E94C7050E94D7012FEF84E39CE02150E3
:1003C00080409040E1F700C0000008950E94D801ED
:1003D0000E946A1708950E94D8010E948E170895FE
:1003E0000F931F93CF93DF938C0161E00E94B401C0
:1003F000EC01B8010E947F01811106C080E0DF910D
:10040000CF911F910F910895B801CE010E94C81499
:100410008823A1F3B801CE010E94C512882371F38D
:10042000B801CE010E943A14882341F3F801858176
:10043000882361F0C330FCE7DF07E9F058F4C11509
:10044000ECE7DE07A9F0C130DC47B9F0C8010E9433
:100450007A01D5CFCB358CE7D807A9F0CC35ECE7BE
:10046000DE0771F0CA35DC4789F70E94430BEECFF7
:100470000E94E601C3CF0E944B0B0E94EB01BECF4E
:100480000E94390BE3CF0E94470BE0CF0E94A116D8
:100490000E946D0208950E9471020E94A61608959E
:1004A000089581E008950895CF93DF93D82F0E9497
:1004B0005102C82F882319F08D2F0E9453028C2FD0
:1004C000DF91CF9108950895CF93C82F0E945002D5
:1004D0008C2F0E945402CF91089580E00E94640204
:1004E00008950E9411150E9464020895CF930E94FE
:1004F0001115C82F80919C018C1779F0C0939C0135
:100500000E942B1760939D0170939E0180939F0121
:100510009093A0018C2F0E946402CF910895ADE0CA
:10052000B0E0E5E9F2E00C94571E488759876A87E6
:100530007B878C879D8791110E94710A1F8286E0BC
:10054000FE013896DE01119601900D928A95E1F731
:100550008D8181110DC029813A814B815C816D8132
:100560007E818F810E94A4092D96E2E00C94731E77
:10057000CE0101960E94BF018111EDCFF5CFFC01A4
:100580002481213021F4808191810E943F070895C8
:10059000662329F00E94C6100E94991108950E94B6
:1005A0002011FACFCF93C82F8823B9F08CEF8C0F8E
:1005B000813AA8F46C2F80910001909101010E9472
:1005C000A415882329F08C2F0E94310A0E94AA0AC0
:1005D0008C2F0E94290A0E94AA0ACF91089580E2D6
:1005E0008C0F883048F4C77081E001C0880FCA952D
:1005F000EAF70E94540AEFCFEBE5EC0FE33040F44A
:10060000F0E0E75BFE4F808190E00E944615E5CF69
:10061000E8E5EC0FEB3150F4F0E0EE0FFF1FED5E7C
:10062000FE4F808191810E946B15D7CF83E38C0FA1
:10063000833198F661E08C2F0E94C802CECF8823C8
:1006400081F19CEF980F913A28F40E94310A0E94A0
:10065000AA0A089590E2980F983050F4877091E0BC
:1006600001C0990F8A95EAF7892F0E945A0AEFCFA5
:100670009BE5980F933028F490E080E00E944615A7
:10068000089598E5980F9B3128F490E080E00E944F
:100690006B15089593E3980F933118F460E00E946E
:1006A000C80208951F93CF93DF93182FEB010E9488
:1006B000D202209739F4812F0E941F03DF91CF913E
:1006C0001F9108958FE99FE00197F1F700C00000A6
:1006D0002197EFCF70E060E0893311F460E570E0BE
:1006E0000E9452030895882321F00E94540A0E9418
:1006F000AA0A0895882321F00E945A0A0E94AA0A91
:100700000895B0E0A0E0E7E8F3E00C94501E6C011F
:10071000D62FC72FFC011581068102950F700E940C
:100720004A0AE82E8823E9F0E12E1123D1F08C2F1C
:10073000807F803451F080E28D0F8830F8F0011115
:1007400004C08C2F807E8032C9F08091830282FFAA
:1007500015C082E00E940D0B0E944A0A91E0E82E2B
:10076000E926BC2EB2949FE0B922FBE0FB15B8F15C
:10077000EB2DF0E0E450F14E0C94411EE12CF1CF52
:100780000C2F0F70C07F11F00295007F112399F09C
:10079000002359F080E28D0F883010F0D11107C08E
:1007A000802F0E94540A0E94AA0A8D2F5AC0802FBF
:1007B0000E94640AF8CF8D2F0E941F03002379F056
:1007C00080E28D0F883010F0D11104C0802F0E947C
:1007D0005A0A03C0802F0E946A0A0E94AA0AEB2DBF
:1007E000E850FF0B349720F40E9411150E94640218
:1007F000EE2089F00E94460A80FD0DC0F6011582A8
:100800000E94400A0E945006C6010E948E050E9466
:10081000400A0E946006CDB7DEB7E9E00C946C1E7A
:100820002C2F2F70F22EC07FC03219F0F29480EF7F
:10083000F822DD2341F0D130D1F1112309F444C075
:100840000023F1F0B2CF8091830282FD15C0112305
:1008500059F0FF2029F08F2D0E94540A0E94AA0A05
:1008600080E00E94D202BBCF80E00E941F03FF20E5
:1008700009F4B5CF8F2DABCF112369F0011104C05E
:100880008F2D0E947303ABCF013009F0A8CF8F2DBD
:100890000E94880AA4CF0111A2CF8F2D0E947A0353
:1008A0008F2D0E94940A8F2D0E94780A98CF1123D1
:1008B00021F0063008F093CFE3CF053008F08FCF5A
:1008C0008F2D0E947A038BCF0023D1F3D93349F4C3
:1008D0003FEF87EE93E0315080409040E1F700C059
:1008E00000008D2F0E941F037ACF8C2F869586954E
:1008F000837069F0813009F072CF8D2F9C2F937037
:10090000111102C080E090E00E946B1568CF8D2F1E
:100910009C2F9370111102C080E090E00E94461558
:100920005ECF612F8D2F0E94C80259CF8C2F83700C
:10093000A1F5111154CF4D2F429546954770440FA4
:10094000440F2D2F2F7030E0042E02C0220F331FD2
:100950000A94E2F790E080E0D4FF09C08FE090E0D5
:1009600002C0880F991F4A95E2F780959095C69529
:10097000C695C370822B932BC23049F058F4C13016
:1009800019F00E9420062BCF0E94170628CF0E9444
:10099000290625CF0E94140622CF8695112311F037
:1009A0008C2F8170882309F41ACF4D2F42954695DC
:1009B0004770440F440F2D2F2F7030E0042E02C0DB
:1009C000220F331F0A94E2F790E080E0D4FF09C0C1
:1009D0008FE090E002C0880F991F4A95E2F780955A
:1009E0009095C695C695C370822B932BC23049F063
:1009F00058F4C13019F00E948B06F1CE0E94820695
:100A0000EECE0E949406EBCE0E943806E8CECF7060
:100A1000112329F08C2F0E9450068D2F32CF8D2F5D
:100A20000E947A038C2F0E946006D9CED23F41F1FA
:100A300060F4D03FB9F0D13F81F0112309F446C0F2
:100A40000111B3CE8C2F8F711FC0D33F01F1D43F62
:100A5000A1F78091830282FD24C08C2F8F71112316
:100A600011F312C0112341F0053008F0B8CE8C2FDD
:100A70008F710E947206B3CE063008F0B0CEF7CF69
:100A80008C2F8F711111CFCF0E945006A8CE112349
:100A900029F08C2F8F710E944406A1CE0E943F0640
:100AA0009ECE112349F0CF718C2F0E94500663E037
:100AB0008C2F0E94EF0A93CE81E00E940D0B023032
:100AC00008F48DCE82E00E940D0B89CE002359F0F0
:100AD000D93309F006CFEFEFF7EE23E0E150F04015
:100AE0002040E1F7FCCE8C2F8F719DCF0F931F9389
:100AF000CF93DF93EC01688179818D810E944A0751
:100B00008C010E949D060E941306B801CE010E942E
:100B10008103DF91CF911F910F910895CF93DF93C0
:100B2000EC018C81882399F0CE010E94F0018111A3
:100B300011C00E944A0A882351F08D81882339F020
:100B40008091830282FF03C082E00E940D0BDF913F
:100B5000CF910895CE010E947605CE010E94CB016F
:100B6000F6CF90E080E00E94461590E080E00E9481
:100B70006B150E94710A0E94AA0A0E94B5110E9478
:100B8000991108950E94390A0E94B10508950E94A2
:100B9000610A0E94C205089592959F70963091F067
:100BA00058F4925F9F70923058F4803F19F030F4FF
:100BB000883E30F481E008959A5FF4CF843FD1F30A
:100BC00080E00895883EB0F3813FD1F7F3CFFC0178
:100BD0002481222339F0808191810E943F070E9465
:100BE000CC05089580E00895A6E0B0E0EAEFF5E0D6
:100BF0000C94571E2696E2E00C94731EA7E0B0E01A
:100C0000E4E0F6E00C94571E2796E2E00C94731E85
:100C100008950E94080608950E9409069093A9016C
:100C20008093A801089508950E940C0608952091CC
:100C3000A8013091A901822B932B0E940C060895E4
:100C40002091A8013091A901822393230E940C06D0
:100C500008952091A8013091A901822793270E942D
:100C60000C0608950E94080608950E943206089511
:100C70000E9435069093A7018093A601089590E005
:100C800080E00E943806089521E030E0A90102C00A
:100C9000440F551F8A95E2F7CA010E94380608954D
:100CA00021E030E002C0220F331F8A95E2F78091E5
:100CB000A6019091A701822B932B0E9438060895DC
:100CC00021E030E002C0220F331F8A95E2F7209521
:100CD00030958091A6019091A701822393230E94D1
:100CE0003806089521E030E002C0220F331F8A95B4
:100CF000E2F78091A6019091A701822793270E9495
:100D0000380608952091A6013091A701822B932BDC
:100D10000E94380608952091A6013091A7018223F0
:100D200093230E94380608952091A6013091A701CF
:100D3000822793270E94380608950895262F27704A
:100D400091E001C0990F2A95EAF723E0769567951F
:100D50002A95E1F7660F771F660F771FFA01E60FF6
:100D6000F71F50E040E0682F70E08191DF0111979C
:100D70009B01042E02C0369527950A94E2F7217054
:100D800021952827292328272C934F5F5F4F443034
:100D9000510559F70895A82FA77023E096958795D8
:100DA0002A95E1F7880F991F880F991FFB01E80F1B
:100DB000F91F50E040E080E0219130E00A2E02C0AF
:100DC000369527950A94E2F721703327042E01C047
:100DD000220F0A94EAF7822B4F5F5F4F4430510590
:100DE00059F70895262F911109C0843038F4682FDF
:100DF00070E042EA51E0822F0E949E060895911110
:100E00000AC0843030F462EA71E090E00E94CB06C0
:100E1000982F892F089590E0FCCFB0E0A0E0E3E1A7
:100E2000F7E00C94501E7C010091A6011091A701DF
:100E30008091A8019091A901082B192BCFE0D0E057
:100E4000CC24C394D12CBC2EC6010C2E02C0880F1A
:100E5000991F0A94E2F780239123892B49F4219763
:100E600090F7B12C8B2DCDB7DEB7E9E00C946C1E5A
:100E7000B7018C2F0E94F80D019789F3F3CFCF9320
:100E8000DF93EC010E940D07BE010E94F80DDF9177
:100E9000CF9108951F93CF93DF93EB019091A10120
:100EA000992339F0CB010E943F07DF91CF911F9129
:100EB0000895882369F0CB010E940D07182F682F31
:100EC000CE010E94F206BE01812F0E94F80DEDCFE7
:100ED000CB010E94FF06182FF6CF1F93CF93DF930D
:100EE000C091AA0117E08091AB018C1304C0DF917F
:100EF000CF911F910895D0E01C9FF0011D9FF00D30
:100F00001124E455FE4F2081318142815381648157
:100F1000758186810E94FE052196C770E4CF2091DD
:100F2000E4013091E5014091E6015091E7016091C3
:100F3000E8017091E9018091EA010E94FE0508959F
:100F4000CF93DF938091EA01807F09F04DC08091BB
:100F5000E901882309F448C0E091AA015091AB014E
:100F6000C091E501D091E4016091E6017091E70143
:100F700047E05E17C9F18E2F90E0E49FF001112445
:100F8000E455FE4F2481222391F1489FF001499FAF
:100F9000F00D1124DF01A455BE4F11962C9111972D
:100FA0002C1325C02C912D1322C015962C9115972A
:100FB00021111DC012962D913C91261B370B283C08
:100FC0003105A8F48091EA018F7080618093EA0175
:100FD000EE54FE4F80818F708061808384EE91E0BB
:100FE0000E948E050E946D07DF91CF910895FC014C
:100FF0003196E770BECF482F2091AA019091AB01A6
:1010000057E0291302C080E0089530E0529FF001BC
:10101000539FF00D1124E455FE4F8181681306C0E3
:101020008081481303C085818111EECF2F5F3F4F30
:101030002770E7CFA4E1B0E0E0E2F8E00C944D1EA9
:101040008C0186E0F801DE011F9601900D928A95D1
:10105000E1F7F8018481E58094EEA92E91E0B92EA4
:101060009091E80191111FC08823D1F0EE20A9F0E2
:10107000C8010E94E705F82E882379F087E0F8017F
:10108000D50101900D928A95E1F7C5010E94BF023A
:101090000E94A0070E948F075FC0C8010E948E05B2
:1010A000FF24F39459C0C080D18082809380F09057
:1010B000E9012091E6013091E701A401421B530BA5
:1010C000FF2009F4F9C0483C510508F0A7C0882367
:1010D00009F442C09091E5018091EA01282F207F18
:1010E00009F05CC09D1116C09091E401C91212C0B4
:1010F000E1104EC08F7080618093EA010E948F07DB
:1011000084EE91E00E948E058091EA01F8018683C9
:10111000F12C22C0E1103CC06D2D8C2D0E94FB07EC
:101120006D2D8C2D0E94FB07E82E8111F1CFCF860B
:10113000D88A8F8598890E943F07292F22952F7082
:10114000243078F49F702230A8F09923B9F0F80188
:101150009681907F99F4FE2C8F2D6496ECE00C9490
:10116000691E2A5F2F70223068F0C8010E948E0528
:10117000EF2CF1CF992311F0882369F3805E88303A
:1011800050F3F3CF803F38F3815F833070F7E3CFC4
:101190008091EA0181608093EA01BACF9D1113C06A
:1011A0009091E401C9120FC0E1100DC08683C801FF
:1011B0000E948E0587E0F801A4EEB1E001900D9247
:1011C0008A95E1F767CFC8010E94E705882309F4F3
:1011D00064CFEE2009F461CF8091EA01803288F07B
:1011E0002091E4013091E501398728879B868A8622
:1011F0009091E8019C871D868E87CE0108960E94FB
:101200008E0587E0F801A4EEB1E001900D928A9579
:10121000E1F70E94A0070E948F0742CF9091EA0158
:10122000292F207FA1F4682D9A8A898AA6017A89BC
:101230009E2D0E94F40584EE91E00E948E0587E0C9
:10124000F50111928A95E9F70E948F0761CF8823F3
:1012500009F482CF8091E5018D1110C08091E401E5
:10126000C8120CC0E1100AC09683C8010E948E0506
:1012700087E0F50111928A95E9F76ECFC8010E94C7
:10128000E705882309F409CFEE2009F406CF809101
:10129000EA01803208F4B5CF2091E4013091E501F4
:1012A0003A8329839C828B829091E8019D831E82E0
:1012B0008F83CE010196A3CF483C5105B8F5882312
:1012C00009F4EECEFE2CEE2009F4E7CE8091E50184
:1012D0008D111EC08091E401C8121AC08091EA01EC
:1012E00080FD0DC0982F907F51F08683903F09F4C8
:1012F0005ECF982F907F905F8F70892B57CF87E0BC
:10130000F801A4EEB1E001900D928A95E1F724CFA7
:10131000C8010E94E705811174CF8091EA018160C4
:101320008093EA01C8010E948E0516CF682D9A8A23
:10133000898AA6017A899E2D0E94F40587E0F5012D
:1013400011928A95E9F7A6CEAEE0B0E0EAEAF9E0BC
:101350000C94561E288739874A875B876C877D8760
:101360008E87CE0108960E941A088823B1F06C85FA
:10137000662341F0288539854A855B857D858E8584
:101380000E94FE0517E08091AA019091AB0189139C
:101390003DC02E96E3E00C94721E87E0FE01389665
:1013A000DE01119601900D928A95E1F78C858823D4
:1013B00049F32091AB0130E0C9010196877099276C
:1013C0004091AA014817190699F097E0929FD00121
:1013D000939FB00D1124A455BE4FFE01319601908C
:1013E0000D929A95E1F78093AB010E946D07CACFE9
:1013F0000E94C7051092AB011092AA0187E0E4EEAB
:10140000F1E0DF011D928A95E9F7BCCF819FC00111
:10141000112484559E4F0E941A08882309F4B9CFDD
:10142000E091AA011E9FF0011124E455FE4F208196
:101430003181428153816481758186810E94FE05DC
:101440008091AA0190E00196877099278093AA0164
:101450009ACF682F80910001909101010E9424167B
:101460000895682F80910001909101010E94321629
:10147000089580910001909101010E944016089505
:1014800080910B02869586958695089580910B0232
:101490008770089590910B02977081E009F480E0C5
:1014A000089580912F02089590912F02892B8093A7
:1014B0002F020895809590912F02982390932F02E8
:1014C000089510922F02089590912E02892B8093F7
:1014D0002E020895809590912E02982390932E02CB
:1014E000089510922E02089508950E94740A089596
:1014F00090910C02292F282331F080958923809325
:101500000C020E94750A089508950E94840A0895A5
:1015100090910D02292F2823281729F0982B9093BA
:101520000D020E94850A089590910D02292F28230B
:1015300031F08095892380930D020E94850A0895D9
:1015400080910D02882329F010920D0280E00E9404
:10155000850A0895CF93DF93E0910001F091010196
:1015600080912F028083E0910001F0910101808140
:1015700090912E02892B808390910D02992381F006
:10158000E0910001F09101018081892B808380919D
:101590000001909101010E94901581110E94A00A02
:1015A000C0910001D091010140E250E06BEE71E08A
:1015B000CE010E94921E892B59F080E2FE01ABEE13
:1015C000B1E001900D928A95E1F7CE010E941E15BF
:1015D000DF91CF91089508950E94EB0A08959091AC
:1015E000830292FF11C098E0899F90011124622B21
:1015F00060930B020E94500680910B02869586959F
:1016000086950E94EC0A08950E9450060895109253
:101610000B0280E00E94EC0A089590910B028095E5
:10162000892380930B02282F277069F4891759F0BA
:101630009091830292FF07C08695869586950E94B9
:1016400060060E94070B08959091830292FB222767
:1016500020F9281769F080FB92F99093830280911A
:101660008202909183020E946C0B82E00E940D0B1B
:1016700008958091830282FB882780F991E0892771
:101680000E94240B089581E00E94240B089580E0BD
:101690000E94240B08956FEF7FEF90E080E00E949E
:1016A000E41E089590E080E00E94B01E21E0863E96
:1016B0009E4F09F020E0822F089582E090E00E9482
:1016C000A81E089583E090E00E94A81E089584E07B
:1016D00090E00E94B01E0895BC0184E090E00E945A
:1016E000E41E0895AB01BC018FE090E00E94D81E7B
:1016F0000895AB01BC0183E190E00E94D81E0895DB
:1017000060E070E0CB010E94790B089560E070E02A
:10171000CB010E94720B0E94800B0895A8E0B0E0FC
:10172000E4E9FBE00C94571E66EE7EEF90E080E06B
:101730000E94E41E60E082E090E00E94C61E60E02D
:1017400083E090E00E94C61E1092A9011092A801A9
:1017500060E074E184E090E00E94E41E60E086E0D6
:1017600090E00E94C61E6FEF87E090E00E94C61EC8
:1017700040E050E0BA0188E090E00E94D81E60E0AE
:1017800084E290E00E94C61E60E087E190E00E9443
:10179000C61E60E08CE090E00E94C61E60E08DE016
:1017A00090E00E94C61E19821A821B821C821D8232
:1017B0001E821F82188648E050E068E170E0CE018A
:1017C00001960E94B61E40E050E0BA0180E290E02F
:1017D0000E94D81E0E94860B2896E2E00C94731E8D
:1017E0000E948E0B0895682F8EE090E00E94C61E26
:1017F0000895A6E0B0E0EFEFFBE00C94551E0E94C8
:101800001F178C018091300290913102801791074F
:1018100081F019821A820E941F17682F49815A810C
:10182000792F80E090E00E948F02109331020093A4
:1018300030022696E4E00C94711E0E942B176093F0
:101840003B0270933C0280933D0290933E02609372
:101850003702709338028093390290933A020895C8
:101860000E942B1760933B0270933C0280933D02D1
:1018700090933E026093330270933402809335025A
:10188000909336020895089508950E94430C089598
:1018900008950E94480C08958EEE9EE00E943C1030
:1018A0000E94440C0E94450C089581E008950E9416
:1018B000550C08950E94550C0895089508950E94AE
:1018C0005D0C0E945E0C08950E940D0F0E94630241
:1018D00008950E9416170E94BC130E94AB0F0E942D
:1018E000640C0E94490C0895A6E0B0E0EAE7FCE031
:1018F0000C94511E0E94570C81110FC00E94F90BCD
:101900000E94DB1381110E94300C0E94D7110E94AB
:1019100076022696E8E00C946D1E0E94B70F109197
:10192000320280E00E94330F181741F380913F028A
:1019300081FD0E94390F0E945A0CD82E80E00E942F
:10194000330F182F80913202181729F1E12EE82663
:1019500000E0FF24F394CC24C3948E2D8F21A9F0B2
:10196000DD2099F009831A820E941F179C838B83C4
:10197000CD8291E0812F8F2109F490E049815A8135
:101980006B817C818D810E948F020F5FFF0C043080
:1019900021F7109332020E941D0CB2CF1F93CF93F8
:1019A000DF930E94FD0DEC01C11580E5D807F0F52D
:1019B000C11580E4D80708F09CC0C03ED10520F5D1
:1019C000CD3CD10508F082C0C83AD10578F4C53ABB
:1019D000D10508F073C0C130D10519F1209709F184
:1019E000C430D105F0F4D0E0C0E01BC0C33CD10549
:1019F000D0F7C85AD0E0CC0FDD1FC45BDE4F099092
:101A0000D881C02DD4640DC0C11580E2D80708F07C
:101A1000D1C0C11581E0D80708F05AC0C83ED10531
:101A200010F7CE01DF91CF911F910895C03682E566
:101A3000D80718F5C03482E5D80708F06BC0C0326B
:101A400082E5D80708F05FC0C11582E5D80708F421
:101A500097C02C2F2695269580E2289F900111246F
:101A60008C2F8370C1E0D0E002C0CC0FDD1F8A95BF
:101A7000E2F7C22BD32BDD68D4CFC03A82E5D8077A
:101A800060F4C03882E5D80708F459C0CF71D0E0BF
:101A9000DC2FCC27C46FD06AC4CFC03C82E5D80706
:101AA00008F462C0C03E82E5D80708F09CCFDC2F66
:101AB000CC27CC27DF71C06FD06AB3CFC55AD0E036
:101AC000CE57DE4FC881D0E0D064ABCFD065A9CF70
:101AD0008D2F0E949F0E182FCE0199270E94FD0D79
:101AE000C12FD0E0DC2FCC27CC27DF71C82BD92B1E
:101AF00098CFCE0199270E94FD0DCC27DF70C82B0F
:101B0000D92BD06A8ECFCF71D0E0DC2FCC27C16F1C
:101B1000D06A87CF2C2F26952695277080E2289FA4
:101B2000900111248C2F8370C1E0D0E002C0CC0F53
:101B3000DD1F8A95E2F7C22BD32BDC6872CF2C2FE6
:101B400026952695277080E2289F900111248C2FDE
:101B50008370C1E0D0E002C0CC0FDD1F8A95E2F7B0
:101B6000C22BD32BDA685DCF8C2F8F710E949F0E12
:101B7000C82FD0E0DC2FCC27CC27DF71D06251CF2B
:101B80008C2F8F710E949F0E55E0D695C7955A9560
:101B9000E1F7CF70D0E0DC2FCC27282F30E084FF96
:101BA00005C044E0220F331F4A95E1F7C22BD32B27
:101BB000D06937CF8D2F8F710E949F0E182FCE01C5
:101BC00099270E94FD0DC12FD0E0DC2FCC27CC2718
:101BD000DF71C82BD92BD2CF462F711106C06430CC
:101BE00020F460E00E947201089590E080E0089582
:101BF0000E94EC0D0E94CE0C089582389105B9F137
:101C0000B0F48133910509F47DC048F4893291051F
:101C100009F46DC08A32910509F47BC008958533BB
:101C2000910509F45FC08933910509F10895833E58
:101C30009105D9F138F4803E910529F1823E910554
:101C400079F10895863E9105D9F1873E910509F411
:101C50003EC0843E910541F52091830221FF24C0BE
:101C60008091820284FD19C087EE90E00895209152
:101C70008202237009F05AC02091830223FF14C00E
:101C800089E290E008952091820220FD38C03091D1
:101C9000830230FF09C024FF43C090E080E0089534
:101CA0002091820222FDF7CF08952091820222FD29
:101CB0003AC03091830230FD39C024FFF5CFEDCF1B
:101CC0002091820223FFF0CF24FDE7CFCDCF2091DA
:101CD000820223FD2EC03091830231FFEECF84EECD
:101CE00090E008952091820225FFDECFC9CF209198
:101CF000820225FD21C02091830223FFD5CF89E3F5
:101D000090E0D2CF2091820226FFCECF8AE290E0EF
:101D100008952091820226FFC7CF81E390E00895C5
:101D200083EE90E0089582EE90E0089580EE90E0DA
:101D3000089586EE90E0089585E390E008959091EF
:101D4000820292FF10C041E0282F2471243009F054
:101D500040E031E0282F2871283009F030E04317A7
:101D600011F02CE0822793FF10C041E0282F24714E
:101D7000243109F040E031E0282F2871283109F0A2
:101D800030E0431711F02CE082273091830230FFBE
:101D900010C051E0282F2171213009F050E041E0BE
:101DA000282F2871283009F040E0541711F029E05D
:101DB000822731FF10C041E0282F2171213109F025
:101DC00040E031E0282F2871283109F030E0431736
:101DD00011F029E0822794FD877E089580E0089520
:101DE0000E944B0B08950E94B70F2FEF86E791E0FA
:101DF000215080409040E1F700C000000E94B70FE2
:101E000080E00E94330F80FF04C00E94F00E0E9409
:101E10006A1708950E94F30E08950E94520B8111D3
:101E200002C00E94F00B0E945D0B80933F020E9453
:101E3000670B90938302809382020E940A0F0E9494
:101E4000620B90E00E9414068091A6019091A70178
:101E50000E943506089508950E942B0F0895089555
:101E60000E942F0F0895E82FF0E0EB57FD4F80817F
:101E70000895089580EA8A95F1F7089500C00895BD
:101E80000E943A0F0895F894E82FE295EF70F0E081
:101E900031A1282F2F7081E090E001C0880F2A9592
:101EA000EAF7982F9095932391A392A1892B82A36F
:101EB0007894089587EF0E94430F85E30E94430FB3
:101EC00086E30E94430F87E30E94430F85EF0E9441
:101ED000430F0895EF92FF920F931F93CF93DF93D9
:101EE0008C01F62EE42EC62FD0E0CB57DE4F288192
:101EF0002F3F39F1F894E22FE295EF70F0E031A135
:101F00002F7081E090E001C0880F2A95EAF7932FA7
:101F1000982B91A392A18095892382A378940E9403
:101F20003E0FF80180817D9911C08E29808311E0D8
:101F300088818F3F11F00E94430F612F8F2D0E94E7
:101F4000400FCDB7DEB7E6E00C946F1EE0948E2113
:101F5000808310E0EDCF0E945A0F109285021092FC
:101F6000840281E00E94E30F0E942C0F0895A1E0FB
:101F7000B0E0EDEBFFE00C94551E198210E001E09B
:101F8000402F612FCE0101960E946A0F1F5F000F44
:101F90001430B1F790918402898121E0981301C037
:101FA00020E098138093840241E065E872E084E8C1
:101FB00092E00E94E40F182F0E94300F812F21968B
:101FC000E4E00C94711E0895CF92DF92EF92FF929D
:101FD0000F931F93CF936C017B01042F222349F0B1
:101FE00081E0809342020E941F17909341028093E8
:101FF0004002C0914202C1110AC0C0E08C2FCF91B3
:102000001F910F91FF90EF90DF90CF9008958091F6
:102010004002909141020E943717059770F310E03B
:10202000A801B601C7010E94921E892B41F0A801A8
:10203000B601C7010E949F1E10924202DFCFC0E08E
:10204000FBCF0E9403190E94690C0E941019089589
:102050000E9415190E94740C0E942F1908950E9465
:10206000B8160E94E9180E944C0C0E9421100E9490
:1020700028100E945F0CFBCF90939B0180939A01E4
:102080000895282F35EB2303C001112497FF04C0C6
:1020900080589109892F089580589F4FFBCF8091D8
:1020A000490280FF0DC06091070170E0660F771F45
:1020B0006038710570F56115710569F1862F089515
:1020C00081FF07C06091070184E0689FB00111247F
:1020D000EFCF6091070182FD0AC0809148028823FA
:1020E000A9F02091060160910701821710F088E0A5
:1020F000ECCF869FC001112433E0880F991F3A95D9
:10210000E1F7622F70E00E942D1ED2CF68E070E0F0
:10211000D5CF8FE7089581E008958091490280FF2F
:102120000CC06091030170E0759567957595679592
:102130006115710549F1862F089581FF06C06091F0
:10214000030170E075956795F3CF6091030182FDFF
:102150000BC0909147029923A1F0609102018091F8
:102160000301961738F0682F70E06038710500F3AE
:102170008FE70895899FC001112470E00E942D1EF1
:10218000F4CF61E070E0D7CF81E008958D3C31F469
:102190000E944F10819580934D0208958E3C19F452
:1021A0000E944F10F8CF8F3C31F40E944F10819560
:1021B00080934C020895803D19F40E944F10F8CF8F
:1021C000893D29F40E948D1080934E0208958A3D26
:1021D00021F40E948D108195F7CF8B3D31F40E9440
:1021E0008D10819580934F0208958C3D19F40E94C3
:1021F0008D10F8CF9FE2980F983070F4815D990BA5
:1022000021E030E001C0220F8A95EAF780914B026D
:10221000822B80934B0208958D3D31F480914902C9
:1022200081608093490208958E3D21F48091490296
:102230008260F7CF8F3DB9F7809149028460F1CF7A
:1022400040914C028D3C59F480914D0287FF0DC0A6
:1022500010924D0241110BC01092480208C08E3CF2
:1022600081F480914D0218169CF3442381F08091F3
:102270004E0290914F02892B09F05AC010924702EA
:1022800008958F3C49F447FFF0CF10924C028091A3
:102290004D028111ECCFE0CF803D19F41416ACF360
:1022A000E4CF90914E02893D29F41916F4F610926C
:1022B0004E02DBCF8A3D19F497FFD7CFF8CF90912C
:1022C0004F028B3D29F497FFD0CF10924F02CDCF14
:1022D0008C3D19F41916CCF3C8CF9FE2980F9830B3
:1022E00090F4815D990B21E030E0B90102C0660FE6
:1022F000771F8A95E2F7CB01809590914B02892355
:1023000080934B02B2CF8D3D31F4809149028E7F94
:1023100080934902AACF8E3D21F4809149028D7F9E
:10232000F7CF8F3D09F0A1CF809149028B7FF0CF8D
:1023300008950E941F179C0190914C0280914D02BC
:10234000982B21F0309346022093450290914E0243
:1023500080914F02982B21F0309344022093430246
:102360008AE492E00E943815089586E0EAE4F2E0FB
:10237000DF011D928A95E9F71092480210924702F8
:10238000109249020895FC01828181110EC083815F
:1023900081110BC08481811108C091E08581811178
:1023A00001C090E0892F8170089581E0FCCFA6E004
:1023B000B0E0EDEDF1E10C94561E86E0EAE4F2E0C7
:1023C000DE01119601900D928A95E1F710924C0270
:1023D00010924D0210924E0210924F028B819C81FE
:1023E000892B89F080914502909146020E9437170F
:1023F000AC01909148029923C9F18091080184179A
:10240000150608F440C08D819E81892B91F0809142
:102410004302909144020E943717AC019091470209
:10242000992309F46AC0809104018417150608F401
:1024300072C0BE016F5F7F4F8AE492E00E94521625
:10244000811105C08AE492E00E94C31181110E94AB
:10245000991186E0FE013196AAE4B2E001900D9256
:102460008A95E1F72696E3E00C94721E209109010B
:102470008AE0289F900111242417350720F69F5FDA
:102480009093480202C09F3FD1F71B81112359F05E
:102490000E944F109FEF11160CF491E0899F802D40
:1024A000112480934C021C81112359F00E944F107B
:1024B0009FEF11160CF491E0899F802D11248093D9
:1024C0004D0280914C02882309F49DCF10914D025A
:1024D000112309F498CF0E944110882351F0809372
:1024E0004C02812F0E944110882329F080934D02D5
:1024F0008ACF81E0F4CF81E0F9CF209105018AE015
:10250000289F900111242417350708F092CF9F5F70
:102510009093470202C09F3FD1F71D81112359F0CC
:102520000E948D109FEF11160CF491E0899F802D71
:10253000112480934E021E81112359F00E948D10A8
:102540009FEF11160CF491E0899F802D1124809348
:102550004F0280914E02882309F46BCF10914F02F5
:10256000112309F466CF0E944110882351F0809313
:102570004E02812F0E944110882329F080934F0240
:1025800058CF81E0F4CF81E0F9CFCF93DF93EC0116
:10259000FB018581882309F4D2C09E013057233284
:1025A000310508F0B2C00E94670B909383028093BC
:1025B0008202FE01E150F047E232F10520F4E85FCB
:1025C000F04E0C94411E80918202816080938202C1
:1025D00093C0809183028860809383028DC0809134
:1025E00082028260F3CF809182028460EFCF80917B
:1025F00082028860EBCF809183028160EDCF809171
:1026000083028260E9CF809182028061DFCF809176
:1026100082028062DBCF809182028064D7CF0E94E9
:10262000C705809182028068D1CF809182028C6040
:10263000CDCF809183028360CFCF809182028E7F45
:10264000C5CF80918302877FC7CF809182028D7F23
:10265000BDCF809182028B7FB9CF80918202877F2C
:10266000B5CF809183028E7FB7CF809183028D7F1B
:10267000B3CF809182028F7EA9CF809182028F7D1D
:10268000A5CF809182028F7BA1CF0E94C705809148
:1026900082028F779BCF80918202837F97CF809138
:1026A00083028C7F99CF8091820282FB992790F9D7
:1026B00021E0922790FB82F990FB83F987CF8091EC
:1026C0008302982F909591708E7F892B90FB81F9D2
:1026D00083CF90918202892F8F7B96FF806476CF83
:1026E0000E94C70590918202892F97FB87F9805835
:1026F0006DCF81E00E94F30B809182029091830262
:102700000E946C0B0E94C70580E0DF91CF91089575
:1027100080E0F0CF90918202892F8F7E94FF8061BC
:1027200055CF90918202892F8E7F90FF81604ECF8E
:1027300090918302892F877F93FF88604DCF81E03E
:10274000E4CF8FE891E00197F1F700C00000089511
:10275000CF93DF93D62F0E945A01C82F882341F0D0
:102760006AE070E089EAD11101C08AEA0E9452034E
:102770008C2FDF91CF91089581E0809351022298B0
:102780002A9A23982B9A0E94A1132091510243E583
:1027900052E0FA018E2F841B821708F0089583B14E
:1027A00082FB882780F91B9904C090E0892B8193D4
:1027B000F1CF92E0FBCFB0E0A0E0E1EEF3E10C94CA
:1027C000511EF12CE12C84E0C82ED12C80915102B5
:1027D000F81630F08E2DCDB7DEB7E8E00C946D1E04
:1027E0000F2D10E0E3B1E2FBEE27E0F91B9940C0AA
:1027F00080E08E2BD801AD5ABD4FEC919E2F937087
:102800009817A1F1EE0FEE0FE82BEC93EF70F0E0CC
:10281000E757FE4FE801CE5ADD4F80819881890F3E
:10282000888320E084305CF0F801E05BFD4F80811C
:102830008F5F808360E08F2D0E94A81321E0888144
:102840008D3F5CF4F801E05BFD4F80818150808317
:1028500061E08F2D0E94A81321E08881082E000CD2
:10286000990BB6010E942D1E8883E22AF394AECF05
:1028700082E0BFCFCF93DF93EB0186319C4711F508
:102880000E94510A9D81992399F08A7A91E009F476
:1028900090E090935402811109C089E20E94290AB4
:1028A0000E94AA0A80E0DF91CF91089585E3F6CFD8
:1028B00080915402811104C089E20E94310AF0CF54
:1028C00085E3FBCF81E0EFCF0F931F93CF93DF938F
:1028D000C42FD22FFC0185818823C9F04093570271
:1028E0000E941F17909356028093550280E28C0F2E
:1028F000883040F4C77081E001C0880FCA95EAF7BC
:102900000E947303DF91CF911F910F910895109151
:102910005702141332C080915502909156020E94C2
:102920003717883C910548F5C0E2CD0F1D17B9F067
:1029300080E2810F883040F4177081E001C0880F79
:102940001A95EAF70E947A03C83048F481E09D2F77
:10295000977001C0880F9A95EAF70E947303802F41
:102960000E946A03C83070F6D77081E001C0880FFA
:10297000DA95EAF70E947A03C5CF80E28C0F88309F
:1029800008F6C77081E001C0880FCA95EAF7F2CF58
:102990000F93DB0188519C4787309105A0F5FC011E
:1029A000E65DF04E0C94411E06E221EE41EE6AE136
:1029B0007CE7CD010E94641480E00F91089507E246
:1029C00025EE45EE6BE17CE7F4CF06E221EE40EE2A
:1029D00068E17CE7EECF07E225EE44EE69E17CE7B3
:1029E000E8CF06E221EE42EE6CE17CE7E2CF07E2BF
:1029F00025EE46EE6DE17CE7DCCF08E221E045EE16
:102A00006EE17CE7D6CF15968C91882319F0109251
:102A10005702D3CF81E0D1CF90935D0280935C02C7
:102A20000895E0915C02F0915D02309729F00190E9
:102A3000F081E02D0995089580E00895E0915C0211
:102A4000F0915D02309799F020911201222359F004
:102A50002091820227FF07C0DC012C9111962C9354
:102A6000119726E02C930280F381E02D09950895BB
:102A7000E0915C02F0915D02309739F022E0DC01D8
:102A80002C930480F581E02D09950895A3E0B0E032
:102A9000ECE4F5E10C94571E20915A0230915B0250
:102AA00028173907A1F090935B0280935A02E091B6
:102AB0005C02F0915D02309751F023E029839B8303
:102AC0008A830680F781E02DCE0101960995239631
:102AD000E2E00C94731EA3E0B0E0E1E7F5E10C94B2
:102AE000571E209158023091590228173907A1F03A
:102AF0009093590280935802E0915C02F0915D023C
:102B0000309751F024E029839B838A830680F781E4
:102B1000E02DCE01019609952396E2E00C94731EF8
:102B2000FC01329680911201882321F0809182026B
:102B30009EE187FF96E080E0915008F4089521918E
:102B40002223D1F38F5FF8CF662301F12091120188
:102B50002223F1F02091820227FF1AC0462F4695CA
:102B6000469546954E3190F4677021E030E002C002
:102B7000220F331F6A95E2F7840F911DFC018281B9
:102B800090E02823392381E0232B69F480E0089525
:102B9000FC01329608962191261721F0E817F907D3
:102BA000D1F7F4CF81E008959C01FC0132969FEFAC
:102BB00080E04191461751F09F3F19F4411101C047
:102BC000982F8F5F8630A9F79F3F09F40895290F4A
:102BD000311D97FD3A95F90162830895FC01329603
:102BE00008962191261303C0DF0111971C92E81764
:102BF000F907B9F70895E62FE695E695E695EE31E3
:102C000068F4E80FF92FF11D677021E030E001C092
:102C1000220F6A95EAF78281822B82830895E62F3C
:102C2000E695E695E695EE3170F4E80FF92FF11D83
:102C3000677021E030E001C0220F6A95EAF7209525
:102C4000828128232283089520911201222339F0C2
:102C50002091820227FF03C00E94FB1508950E9465
:102C6000D415089520911201222339F02091820277
:102C700027FF03C00E940F1608950E94EE150895C5
:102C8000FC01329680911201882351F080918202DA
:102C900087FF06C08EE1DF011D928A95E9F708954E
:102CA00086E0F9CFDC01FB0111969C91119781819F
:102CB000981322C012968C911297882319F0928152
:102CC00089131AC013968C911397882319F0938156
:102CD000891312C015968C911597882319F0958148
:102CE00089130AC014969C91992321F081E02481D4
:102CF000291303C080E001C081E081700895089528
:102D00000E947F160895811106C081E080935E02C3
:102D10000E948016089582E0F9CF83E080935E02DE
:102D20000E94801608950E948316089581E0809382
:102D30005E020E94801608950E94961608950895D6
:102D400008950E94A0160895089508950E949F1660
:102D500008950E94A4160E94B70F0E94A51680E055
:102D60000E94330F91E0811101C090E0892F0895F6
:102D700085B7806885BF85B7806885BF08951F9235
:102D80001FB61F9211248F939F93AF93BF9380918F
:102D90005F02811113C08091860290918702A091F9
:102DA0008802B09189024196A11DB11D80938602CF
:102DB00090938702A0938802B0938902BF91AF914C
:102DC0009F918F911F901FBE1F90189580918E022A
:102DD000843031F10E94460210925F0288E190E057
:102DE00020E40FB6F894A895809360000FBE20935E
:102DF000600083B7817F846083BF83B7816083BFB6
:102E00007894889583B78E7F83BF0FB6F894A89582
:102E100080916000886180936000109260000FBE16
:102E200008950E94C7050E944B02089582E084BD68
:102E300093E095BD9AEF97BD80936E0008952FB7EC
:102E4000F8948091860290918702A0918802B091B7
:102E500089022FBF08952FB7F89460918602709170
:102E6000870280918802909189022FBF08959C016A
:102E70004FB7F8948091860290918702A0918802C2
:102E8000B09189024FBF821B930B089578941F92D3
:102E90001FB61F9211248F939F93AF93BF9380917E
:102EA000860290918702A0918802B09189020196D2
:102EB000A11DB11D8093860290938702A093880282
:102EC000B0938902BF91AF919F918F911F901FBEC8
:102ED0001F90189581E08093E00080E28093D800F5
:102EE0001092C9008FE19EE40197F1F700C0000045
:102EF00087E090EBDC018093970290939802A09377
:102F00009902B0939A0288E19CE00FB6F894A895D4
:102F1000809360000FBE90936000FFCF88E19CE03B
:102F20000FB6F894A895809360000FBE9093600050
:102F3000FFCF8091800208959B01BA0190918E028B
:102F40009430E9F48F708093E9009FEF8091E8005E
:102F5000915085FD06C085ED8A95F1F7000091112D
:102F6000F5CF8091E80085FF0AC050E040E0C9013C
:102F70000E94A6198091E8008E778093E80008955A
:102F800043E050E0BC0182E00E949C17089546E0B7
:102F900050E0BC0182E00E949C170895CF93DF931C
:102FA000EC0180911201811111C048E050E0BE0196
:102FB00081E00E949C1780E2FE01A0E6B2E0019051
:102FC0000D928A95E1F7DF91CF9108958091820269
:102FD00087FF05C040E282E050E0BE01EACF48E052
:102FE00081E0FACF80918D02811109C00E94361BC9
:102FF0000E94931B8091E20084608093E200089518
:1030000010928D0208950E949616089560918A028A
:1030100081E0611101C080E00E948D1608959091B9
:103020008E0281E0943009F080E060918A020E9473
:103030009316089542E061EC81E00E94B21A42E2E8
:1030400061EC82E00E94B21A90918E0281E094308D
:1030500009F080E060918A020E94831608958091B1
:103060009002833009F461C030F48130D1F18230B4
:1030700009F49EC008958A3009F48AC08B3009F49F
:103080006FC0893009F050C080918F02813209F001
:103090004BC08091930290919402029708F044C033
:1030A0008091E800877F8093E8008091E80082FFAC
:1030B00037C09091F3008091F200029731F4809133
:1030C000F100813011F0863021F48091F10080937D
:1030D00080028091E8008B778093E8000E94E61AD6
:1030E00023C080918F02813AF9F48091E800877FB4
:1030F0008093E8008091930290919402892B61F46F
:1031000060E280E692E070E00E94F5198091E800AC
:103110008B778093E800089560E090E080E0F3CF43
:1031200080918E028111C1CF089580918F02813AE2
:10313000D9F78091930290919402892BA9F78091FD
:10314000E800877F8093E8008091E80080FFFCCF53
:10315000809112018093F1008091E8008E77BCCFBE
:1031600080918F02813201F78091930290919402B5
:10317000892BD1F68091E800877F8093E8000E9438
:10318000E61A80919102809312010E94C70508956A
:1031900080918F02813241F68091E800877F809391
:1031A000E8000E94E61A80919202809381020895BD
:1031B00080918F02813A09F0B7CF8091E800877F34
:1031C0008093E8008091E80080FFFCCF809181022D
:1031D000C1CF84B7877F84BF0FB6F894A89580913C
:1031E0006000886180936000109260000FBE80E8EC
:1031F00090E00FB6F89480936100909361000FBE49
:103200000E949C1608950E94361B0E94931BE2EEBA
:10321000F0E080818460808378940E94121E08957B
:103220008AE091E00E940C15089580918E0285300D
:1032300031F480918E02853019F00E9411170895A3
:103240000E94E61680918C02882399F30E94A916A9
:10325000882379F30E9490190E94C705EACF089548
:103260009A0140919502509196020E943819089552
:10327000492F55274330510519F168F44130510564
:1032800009F444C04230510509F445C090E080E0A3
:1032900050E040E025C04132510549F1423251052C
:1032A000A9F784E490E04BEF51E061157105C1F09E
:1032B00086EB90E045E451E06130710589F0E6CF9E
:1032C00099278130910581F0009729F00297F1F656
:1032D000E4EBF0E002C0E4EFF0E0849190E0AF01B5
:1032E000F901518340830895E2EDF0E0F6CF89E0E3
:1032F00090E04AE051E06115710591F389E090E0BA
:1033000043E251E06130710559F3C0CF82E190E0B2
:1033100043E351E0E5CF8BE390E048EF50E0E0CFAE
:1033200080E189BD82E189BD09B400FEFDCF8091B5
:10333000D8008F7D8093D8008091E00082608093D8
:10334000E0008091E00081FDFCCF0895AF92BF9234
:10335000CF92DF92FF920F931F93CF93DF936C0175
:10336000EB018A010E94051BF82E811123C0011573
:10337000110539F0F80180819181C81BD90BC80E65
:10338000D91EB12CA12C2097A9F08091E80085FDD1
:1033900022C08091E8008E778093E8000115110526
:1033A000A1F0F80180819181A80EB91EB182A0829E
:1033B00085E0F82E8F2DDF91CF911F910F91FF9017
:1033C000DF90CF90BF90AF9008950E94051B882397
:1033D000D1F2F82EEFCFF60181916F018093F100C9
:1033E0002197FFEFAF1ABF0ACECFFC018091950263
:1033F0009091960286179707A0F06115710529F440
:103400009091E8009E779093E80090E06115710537
:1034100051F4911108C08091E80082FF34C080E02F
:103420000895BC01F2CF80918E028823C1F18530CE
:10343000C1F18091E80083FD30C08091E80082FDF9
:10344000EACF8091E80080FFE1CF8091F3002091E6
:10345000F200382F6115710519F02830310558F048
:1034600091E02830310509F090E02091E8002E77B6
:103470002093E800CBCF81918093F10061507109D6
:103480002F5F3F4FE7CF80918E02882341F0853038
:1034900041F08091E80083FFBECF81E0089582E093
:1034A000089583E00895FC01809195029091960221
:1034B00086179707A0F06115710529F48091E8003F
:1034C0008E778093E80090E06115710551F49111B9
:1034D00008C08091E80082FF35C080E00895BC01FB
:1034E000F2CF80918E028823C9F18530C9F1809195
:1034F000E80083FD31C08091E80082FDEACF809131
:10350000E80080FFE1CF8091F3002091F200382F96
:103510006115710519F02830310558F091E0283017
:10352000310509F090E08091E8008E778093E80003
:10353000CBCF84918093F1003196615071092F5F58
:103540003F4FE6CF80918E02882341F0853041F0D5
:103550008091E80083FFBDCF81E0089582E0089567
:1035600083E00895982F973028F08F708093E900BA
:1035700081E008959093E900242F762F50E098176A
:1035800031F07091EC002091ED005091F00021FDA0
:1035900002C09F5FE8CF3091EB003E7F3093EB009D
:1035A0003091ED003D7F3093ED003091EB003160C4
:1035B0003093EB007093EC002093ED005093F000FB
:1035C0002091EE0027FDE5CF80E0089580918F02E5
:1035D00087FF13C08091E80082FF06C08091E80059
:1035E0008B778093E80004C080918E028111F2CF26
:1035F000089580918E028823D9F38091E80080FF9E
:10360000F8CF8091E8008E77ECCF2091E4003091E4
:10361000E50095E6A9012091EC00822F817020FF42
:1036200006C08091E80080FF06C080E008952091E8
:10363000E80022FD1AC080918E02882389F085302F
:1036400089F08091EB0085FD0FC02091E40030915E
:10365000E50042175307F9F29150E1F684E008952E
:1036600082E0089583E0089581E008950E94A51BFB
:103670000E94AD1BE0EEF0E0808181608083E8ED88
:10368000F0E080818F77808319BCA7EDB0E08C914A
:103690008E7F8C9380818F7E808310928D0208951F
:1036A0000F931F93CF93DF930E94A51B0E94AD1B26
:1036B000C8EDD0E088818F7788838881806888838F
:1036C00088818F7D888319BC10928E0210928A02A5
:1036D00010928C0210928B0200EE10E0F8018081B3
:1036E0008B7F808388818160888342E060E080E016
:1036F0000E94B21AE1EEF0E080818E7F8083E2EEDC
:10370000F0E0808181608083808188608083F8011F
:1037100080818E7F8083888180618883DF91CF91D3
:103720001F910F910895E8EDF0E080818F7E8083F6
:10373000E7EDF0E080818160808384E082BF81E0FA
:1037400080938D020E94501B0895E8EDF0E0808187
:103750008E7F80831092E20008951092DA0010921A
:10376000E10008951F920F920FB60F9211242F932C
:103770003F934F935F936F937F938F939F93AF93F9
:10378000BF93EF93FF938091E10082FF0BC0809184
:10379000E20082FF07C08091E1008B7F8093E1000F
:1037A0000E94111E8091DA0080FF19C08091D8001C
:1037B00080FF15C08091DA008E7F8093DA008091BF
:1037C000D90080FF96C080E189BD82E189BD09B43E
:1037D00000FEFDCF81E080938E020E94F21780915F
:1037E000E10080FF19C08091E20080FF15C0809148
:1037F000E2008E7F8093E2008091E20080618093FE
:10380000E2008091D80080628093D80019BC85E0E6
:1038100080938E020E9406188091E10084FF2BC0E5
:103820008091E20084FF27C080E189BD82E189BDEB
:1038300089B5982F917080FFFBCF8091D8008F7D44
:103840008093D8008091E1008F7E8093E100809189
:10385000E2008F7E8093E2008091E200816080939D
:10386000E20080918A02882309F449C084E08093B1
:103870008E020E940F188091E10083FF29C0809181
:10388000E20083FF25C08091E100877F8093E10003
:1038900082E080938E0210928A028091E1008E7FF6
:1038A0008093E1008091E2008E7F8093E20080911E
:1038B000E20080618093E20042E060E080E00E94EC
:1038C000B21A8091F00088608093F0000E94031883
:1038D000FF91EF91BF91AF919F918F917F916F91E8
:1038E0005F914F913F912F910F900FBE0F901F90BE
:1038F000189519BC10928E020E94001870CF80910A
:10390000E30087FD93E090938E02B3CF1F920F9256
:103910000FB60F9211242F933F934F935F936F93A2
:103920007F938F939F93AF93BF93CF93DF93EF9347
:10393000FF93D091E900DF708091EC00C82FC17037
:1039400080FDC0E81092E9008091F000877F8093AD
:10395000F00078940E94CA1C1092E9008091F00057
:1039600088608093F000CD2BCF70C093E900FF9169
:10397000EF91DF91CF91BF91AF919F918F917F9107
:103980006F915F914F913F912F910F900FBE0F90CC
:103990001F901895AAE2B0E0E0EDFCE10C94561EF1
:1039A0008FE892E02091F100FC012193CF01F2E039
:1039B00087399F07B9F70E942F188091E80083FF8D
:1039C0001EC180918F02909190029A3008F017C129
:1039D000E92FF0E0EF5CF04E0C94411E803899F036
:1039E000823809F00CC1809193028F70873008F003
:1039F00006C18093E9008091EB0085FB882780F960
:103A00001092E90006C080918B0290918C02911176
:103A100082609091E800977F9093E8008093F10096
:103A20001092F1008091E8008E77E5C0882309F4B8
:103A3000D3C0823009F0E3C0809191028111D6C0D9
:103A4000809193028F702FEF280F263008F0D7C097
:103A50008093E9002091EB0020FFC8C0933031F43F
:103A60008091EB0080628093EB00C0C09091EB00EE
:103A700090619093EB0021E030E001C0220F8A9525
:103A8000EAF72093EA001092EA008091EB00886048
:103A9000EACF8111B4C0109191021F778091E300A9
:103AA0008078812B8093E3008091E800877F80936A
:103AB000E8000E94E61A8091E80080FFFCCF809128
:103AC000E30080688093E30082E0111183E080933B
:103AD0008E0295C08058823008F091C0809191028A
:103AE000909192028C3D23E09207A1F583E08A83B6
:103AF0008AE289834FB7F894DE01139620E03EE016
:103B000051E2E32FF0E050935700E49120FF03C00F
:103B1000E295EF703F5FEF708E2F90E0EA30C0F0DB
:103B2000C7968D939D932F5F243159F74FBF809196
:103B3000E800877F8093E8006AE270E0CE0101969A
:103B40000E94F5198091E8008B778093E80057C0B8
:103B5000C096E7CF6091930270919402AE014F5FDF
:103B60005F4F0E943019BC01892B09F448C0909125
:103B7000E800977F9093E80089819A810E94531A08
:103B8000E1CF8038E1F58091E800877F8093E800FD
:103B900080918A028093F10045CF811130C09091CD
:103BA0009102923060F58091E800877F8093E80071
:103BB00090938A020E94E61A80918A02882311F06B
:103BC00084E005C08091E30087FDFACF81E0809317
:103BD0008E020E941A1813C080919102813079F4EC
:103BE00081E0933009F080E080938C021092E9002C
:103BF0008091E800877F8093E8000E94E61A809118
:103C0000E80083FF0AC08091E800877F8093E80086
:103C10008091EB0080628093EB00AA96E3E00C9425
:103C2000721E0895CF9380918E028823A1F0C091D7
:103C3000E900CF709091EC00892F817090FD80E8B1
:103C4000C82B1092E9008091E80083FD0E94CA1CF5
:103C5000CF70C093E900CF91089597FB072E16F41B
:103C6000009407D077FD09D00E947E1E07FC05D086
:103C70003EF4909581959F4F0895709561957F4F83
:103C80000895EE0FFF1F0590F491E02D09942F92F7
:103C90003F924F925F926F927F928F929F92AF92DC
:103CA000BF92CF92DF92EF92FF920F931F93CF9329
:103CB000DF93CDB7DEB7CA1BDB0B0FB6F894DEBFC0
:103CC0000FBECDBF09942A88398848885F846E84E6
:103CD0007D848C849B84AA84B984C884DF80EE8030
:103CE000FD800C811B81AA81B981CE0FD11D0FB639
:103CF000F894DEBF0FBECDBFED010895AA1BBB1B1C
:103D000051E107C0AA1FBB1FA617B70710F0A61BDB
:103D1000B70B881F991F5A95A9F780959095BC01FC
:103D2000CD010895FB01DC0104C08D910190801943
:103D300021F441505040C8F7881B990B0895FB01AE
:103D4000DC0102C001900D9241505040D8F7089517
:103D5000F999FECF92BD81BDF89A992780B5089553
:103D6000A8E1B0E042E050E00C94EC1EDC01A40FAE
:103D7000B51F4150504048F0CB01840F951F2E9144
:103D80000E94C71E41505040D0F70895262FF99940
:103D9000FECF92BD81BDF89A019700B4021639F0AA
:103DA0001FBA20BD0FB6F894FA9AF99A0FBE08957B
:103DB0000396272F0E94C71E0E94C61E252F0E9411
:103DC000C71E242F0C94C71E0196272F0E94C71EC2
:103DD0000C94C61EDC01CB01FC01F999FECF06C094
:103DE000F2BDE1BDF89A319600B40D9241505040B9
:103DF000B8F70895F894FFCFC003C003100410046F
:103E000075049104EF03EF039604070516051605E4
:103E10001D1391132513EF12F3122913F7122D130B
:103E2000391303138A1307133D130B13411369133B
:103E30000F134513701315134B135313FB12311348
:103E4000FF12351319134F135F1379138813E912F7
:103E500021139813E514EB14D414DF14F114F714A0
:103E6000FD14EE1C161DFF1D161DFF1D491D6A1DAC
:063E7000FF1DC11DCD1D68
:103E76000E02280850011E0A14019917CE17C717FB
:103E8600C01701E200E900EA00B500B600B700CDB0
:103E9600008301CC008A01920194012102230224AD
:103EA600022502260227022A02B300B4006F007020
:103EB600009F01CB019F02A002818283E200E900FC
:103EC600EA00B500B600B700CD008301CC008A0138
:103ED60092019401210223022402250226022702CE
:103EE6002A02B300B4006F0070009F01CB019F024D
:103EF600A002818283F735363700FF0100010000FA
:0A3F0600FFFF0000010001FF0000B2
:00000001FF
